{
  "_format": "hh-sol-artifact-1",
  "contractName": "CryptoDataLiveMasterContract",
  "sourceName": "contracts/Crypto_Data_Live_Master_Contract.sol",
  "abi": [
    {
      "inputs": [
        {
          "internalType": "address",
          "name": "_cdlToken",
          "type": "address"
        }
      ],
      "stateMutability": "nonpayable",
      "type": "constructor"
    },
    {
      "anonymous": false,
      "inputs": [
        {
          "indexed": true,
          "internalType": "address",
          "name": "previousOwner",
          "type": "address"
        },
        {
          "indexed": true,
          "internalType": "address",
          "name": "newOwner",
          "type": "address"
        }
      ],
      "name": "OwnershipTransferred",
      "type": "event"
    },
    {
      "inputs": [],
      "name": "cdlToken",
      "outputs": [
        {
          "internalType": "contract IERC20",
          "name": "",
          "type": "address"
        }
      ],
      "stateMutability": "view",
      "type": "function"
    },
    {
      "inputs": [
        {
          "internalType": "uint256",
          "name": "_tokens",
          "type": "uint256"
        }
      ],
      "name": "changeVotingAmount",
      "outputs": [],
      "stateMutability": "nonpayable",
      "type": "function"
    },
    {
      "inputs": [
        {
          "internalType": "uint256",
          "name": "_proposalId",
          "type": "uint256"
        }
      ],
      "name": "executeProposal",
      "outputs": [],
      "stateMutability": "nonpayable",
      "type": "function"
    },
    {
      "inputs": [],
      "name": "owner",
      "outputs": [
        {
          "internalType": "address",
          "name": "",
          "type": "address"
        }
      ],
      "stateMutability": "view",
      "type": "function"
    },
    {
      "inputs": [],
      "name": "proposalCount",
      "outputs": [
        {
          "internalType": "uint256",
          "name": "",
          "type": "uint256"
        }
      ],
      "stateMutability": "view",
      "type": "function"
    },
    {
      "inputs": [
        {
          "internalType": "uint256",
          "name": "",
          "type": "uint256"
        }
      ],
      "name": "proposals",
      "outputs": [
        {
          "internalType": "address",
          "name": "proposer",
          "type": "address"
        },
        {
          "internalType": "string",
          "name": "description",
          "type": "string"
        },
        {
          "internalType": "uint256",
          "name": "startTime",
          "type": "uint256"
        },
        {
          "internalType": "uint256",
          "name": "endTime",
          "type": "uint256"
        },
        {
          "internalType": "uint256",
          "name": "yesVotes",
          "type": "uint256"
        },
        {
          "internalType": "uint256",
          "name": "noVotes",
          "type": "uint256"
        },
        {
          "internalType": "bool",
          "name": "executed",
          "type": "bool"
        }
      ],
      "stateMutability": "view",
      "type": "function"
    },
    {
      "inputs": [],
      "name": "renounceOwnership",
      "outputs": [],
      "stateMutability": "nonpayable",
      "type": "function"
    },
    {
      "inputs": [
        {
          "internalType": "string",
          "name": "_description",
          "type": "string"
        }
      ],
      "name": "submitProposal",
      "outputs": [],
      "stateMutability": "nonpayable",
      "type": "function"
    },
    {
      "inputs": [],
      "name": "tokenForVote",
      "outputs": [
        {
          "internalType": "uint256",
          "name": "",
          "type": "uint256"
        }
      ],
      "stateMutability": "view",
      "type": "function"
    },
    {
      "inputs": [
        {
          "internalType": "address",
          "name": "newOwner",
          "type": "address"
        }
      ],
      "name": "transferOwnership",
      "outputs": [],
      "stateMutability": "nonpayable",
      "type": "function"
    },
    {
      "inputs": [
        {
          "internalType": "uint256",
          "name": "_proposalId",
          "type": "uint256"
        },
        {
          "internalType": "bool",
          "name": "_supportsProposal",
          "type": "bool"
        }
      ],
      "name": "vote",
      "outputs": [],
      "stateMutability": "nonpayable",
      "type": "function"
    }
  ],
  "bytecode": "0x608060405234801561001057600080fd5b50604051610bbf380380610bbf83398101604081905261002f916100b9565b61003833610069565b600380546001600160a01b0319166001600160a01b0392909216919091179055670de0b6b3a76400006002556100e9565b600080546001600160a01b038381166001600160a01b0319831681178455604051919092169283917f8be0079c531659141344cd1fd0a4f28419497f9722a3daafe3b4186f6b6457e09190a35050565b6000602082840312156100cb57600080fd5b81516001600160a01b03811681146100e257600080fd5b9392505050565b610ac7806100f86000396000f3fe608060405234801561001057600080fd5b50600436106100a95760003560e01c8063893543851161007157806389354385146101385780638da5cb5b1461014f578063c9d27afe14610160578063d2e9bb2414610173578063da35c66414610186578063f2fde38b1461018f57600080fd5b8063013cf08b146100ae5780630d61b519146100dd578063373d6d5e146100f2578063715018a61461010557806372b234d61461010d575b600080fd5b6100c16100bc366004610715565b6101a2565b6040516100d4979695949392919061072e565b60405180910390f35b6100f06100eb366004610715565b610273565b005b6100f06101003660046107d1565b610353565b6100f0610411565b600354610120906001600160a01b031681565b6040516001600160a01b0390911681526020016100d4565b61014160025481565b6040519081526020016100d4565b6000546001600160a01b0316610120565b6100f061016e366004610882565b610425565b6100f0610181366004610715565b6105e5565b61014160015481565b6100f061019d3660046108b7565b6105f2565b600460205260009081526040902080546001820180546001600160a01b0390921692916101ce906108e7565b80601f01602080910402602001604051908101604052809291908181526020018280546101fa906108e7565b80156102475780601f1061021c57610100808354040283529160200191610247565b820191906000526020600020905b81548152906001019060200180831161022a57829003601f168201915b505050600284015460038501546005860154600687015460079097015495969295919450925060ff1687565b600081815260046020526040902060038101544210156102da5760405162461bcd60e51b815260206004820152601760248201527f566f74696e6720706572696f64206e6f7420656e64656400000000000000000060448201526064015b60405180910390fd5b600781015460ff161561032f5760405162461bcd60e51b815260206004820152601960248201527f50726f706f73616c20616c72656164792065786563757465640000000000000060448201526064016102d1565b80600601548160050154111561034f5760078101805460ff191660011790555b5050565b60008151116103a45760405162461bcd60e51b815260206004820152601d60248201527f4465736372697074696f6e206d757374206e6f7420626520656d70747900000060448201526064016102d1565b600180549060006103b483610937565b909155505060018054600090815260046020526040902080546001600160a01b031916331781559081016103e8838261099f565b5042600282018190556103fe9062278d00610a5f565b6003820155600701805460ff1916905550565b61041961066b565b61042360006106c5565b565b60008281526004602052604090206003810154421061047c5760405162461bcd60e51b8152602060048201526013602482015272159bdd1a5b99c81c195c9a5bd908195b991959606a1b60448201526064016102d1565b33600090815260048201602052604090205460ff16156104ce5760405162461bcd60e51b815260206004820152600d60248201526c105b1c9958591e481d9bdd1959609a1b60448201526064016102d1565b6002546003546040516370a0823160e01b81523360048201526001600160a01b03909116906370a0823190602401602060405180830381865afa158015610519573d6000803e3d6000fd5b505050506040513d601f19601f8201168201806040525081019061053d9190610a78565b1161058a5760405162461bcd60e51b815260206004820152601e60248201527f596f7520646f6e7420686176652062616c616e636520666f7220766f7465000060448201526064016102d1565b81156105ac576005810180549060006105a283610937565b91905055506105c4565b6006810180549060006105be83610937565b91905055505b336000908152600490910160205260409020805460ff191660011790555050565b6105ed61066b565b600255565b6105fa61066b565b6001600160a01b03811661065f5760405162461bcd60e51b815260206004820152602660248201527f4f776e61626c653a206e6577206f776e657220697320746865207a65726f206160448201526564647265737360d01b60648201526084016102d1565b610668816106c5565b50565b6000546001600160a01b031633146104235760405162461bcd60e51b815260206004820181905260248201527f4f776e61626c653a2063616c6c6572206973206e6f7420746865206f776e657260448201526064016102d1565b600080546001600160a01b038381166001600160a01b0319831681178455604051919092169283917f8be0079c531659141344cd1fd0a4f28419497f9722a3daafe3b4186f6b6457e09190a35050565b60006020828403121561072757600080fd5b5035919050565b60018060a01b03881681526000602060e08184015288518060e085015260005b8181101561076b578a81018301518582016101000152820161074e565b506101009150600082828601015281601f19601f830116850101925050508660408301528560608301528460808301528360a08301526107af60c083018415159052565b98975050505050505050565b634e487b7160e01b600052604160045260246000fd5b6000602082840312156107e357600080fd5b813567ffffffffffffffff808211156107fb57600080fd5b818401915084601f83011261080f57600080fd5b813581811115610821576108216107bb565b604051601f8201601f19908116603f01168101908382118183101715610849576108496107bb565b8160405282815287602084870101111561086257600080fd5b826020860160208301376000928101602001929092525095945050505050565b6000806040838503121561089557600080fd5b82359150602083013580151581146108ac57600080fd5b809150509250929050565b6000602082840312156108c957600080fd5b81356001600160a01b03811681146108e057600080fd5b9392505050565b600181811c908216806108fb57607f821691505b60208210810361091b57634e487b7160e01b600052602260045260246000fd5b50919050565b634e487b7160e01b600052601160045260246000fd5b60006001820161094957610949610921565b5060010190565b601f82111561099a57600081815260208120601f850160051c810160208610156109775750805b601f850160051c820191505b8181101561099657828155600101610983565b5050505b505050565b815167ffffffffffffffff8111156109b9576109b96107bb565b6109cd816109c784546108e7565b84610950565b602080601f831160018114610a0257600084156109ea5750858301515b600019600386901b1c1916600185901b178555610996565b600085815260208120601f198616915b82811015610a3157888601518255948401946001909101908401610a12565b5085821015610a4f5787850151600019600388901b60f8161c191681555b5050505050600190811b01905550565b80820180821115610a7257610a72610921565b92915050565b600060208284031215610a8a57600080fd5b505191905056fea26469706673582212203f42508b648965329a5657e28731d2aad4a1324a7fe6a72d91372e2340b8329f64736f6c63430008140033",
  "linkReferences": {},
  "deployedLinkReferences": {}
}