{
  "_format": "hh-sol-artifact-1",
  "contractName": "CryptoDataLiveStakingContract",
  "sourceName": "contracts/Crypto_Data_Live_Staking_Contract.sol",
  "abi": [
    {
      "inputs": [
        {
          "internalType": "address",
          "name": "_cdlToken",
          "type": "address"
        },
        {
          "internalType": "address",
          "name": "_usdtToken",
          "type": "address"
        },
        {
          "internalType": "address",
          "name": "_usdcToken",
          "type": "address"
        },
        {
          "internalType": "address",
          "name": "_wethToken",
          "type": "address"
        },
        {
          "internalType": "address",
          "name": "_wbtcToken",
          "type": "address"
        },
        {
          "internalType": "address",
          "name": "_wbnbToken",
          "type": "address"
        }
      ],
      "stateMutability": "nonpayable",
      "type": "constructor"
    },
    {
      "anonymous": false,
      "inputs": [
        {
          "indexed": true,
          "internalType": "address",
          "name": "previousOwner",
          "type": "address"
        },
        {
          "indexed": true,
          "internalType": "address",
          "name": "newOwner",
          "type": "address"
        }
      ],
      "name": "OwnershipTransferred",
      "type": "event"
    },
    {
      "anonymous": false,
      "inputs": [
        {
          "indexed": true,
          "internalType": "address",
          "name": "by",
          "type": "address"
        },
        {
          "indexed": false,
          "internalType": "uint256",
          "name": "amount",
          "type": "uint256"
        },
        {
          "indexed": false,
          "internalType": "address",
          "name": "token",
          "type": "address"
        }
      ],
      "name": "Staked",
      "type": "event"
    },
    {
      "anonymous": false,
      "inputs": [
        {
          "indexed": true,
          "internalType": "address",
          "name": "by",
          "type": "address"
        },
        {
          "indexed": false,
          "internalType": "uint256",
          "name": "amount",
          "type": "uint256"
        },
        {
          "indexed": false,
          "internalType": "address",
          "name": "token",
          "type": "address"
        }
      ],
      "name": "Withdrawn",
      "type": "event"
    },
    {
      "inputs": [],
      "name": "cdlToken",
      "outputs": [
        {
          "internalType": "contract IERC20",
          "name": "",
          "type": "address"
        }
      ],
      "stateMutability": "view",
      "type": "function"
    },
    {
      "inputs": [
        {
          "internalType": "address",
          "name": "_cdlToken",
          "type": "address"
        },
        {
          "internalType": "address",
          "name": "_usdtToken",
          "type": "address"
        },
        {
          "internalType": "address",
          "name": "_usdcToken",
          "type": "address"
        },
        {
          "internalType": "address",
          "name": "_wethToken",
          "type": "address"
        },
        {
          "internalType": "address",
          "name": "_wbtcToken",
          "type": "address"
        },
        {
          "internalType": "address",
          "name": "_wbnbToken",
          "type": "address"
        }
      ],
      "name": "changeTokenAddress",
      "outputs": [],
      "stateMutability": "nonpayable",
      "type": "function"
    },
    {
      "inputs": [
        {
          "internalType": "address",
          "name": "",
          "type": "address"
        }
      ],
      "name": "claimedRewards",
      "outputs": [
        {
          "internalType": "uint256",
          "name": "",
          "type": "uint256"
        }
      ],
      "stateMutability": "view",
      "type": "function"
    },
    {
      "inputs": [],
      "name": "getAllInvestors",
      "outputs": [
        {
          "internalType": "address[]",
          "name": "",
          "type": "address[]"
        }
      ],
      "stateMutability": "view",
      "type": "function"
    },
    {
      "inputs": [],
      "name": "getTotalEarnings",
      "outputs": [
        {
          "internalType": "uint256",
          "name": "",
          "type": "uint256"
        }
      ],
      "stateMutability": "view",
      "type": "function"
    },
    {
      "inputs": [
        {
          "internalType": "address",
          "name": "_user",
          "type": "address"
        }
      ],
      "name": "hasActiveStakes",
      "outputs": [
        {
          "internalType": "bool",
          "name": "",
          "type": "bool"
        }
      ],
      "stateMutability": "view",
      "type": "function"
    },
    {
      "inputs": [
        {
          "internalType": "address",
          "name": "",
          "type": "address"
        }
      ],
      "name": "investor",
      "outputs": [
        {
          "internalType": "bool",
          "name": "",
          "type": "bool"
        }
      ],
      "stateMutability": "view",
      "type": "function"
    },
    {
      "inputs": [
        {
          "internalType": "uint256",
          "name": "",
          "type": "uint256"
        }
      ],
      "name": "investorAddresses",
      "outputs": [
        {
          "internalType": "address",
          "name": "",
          "type": "address"
        }
      ],
      "stateMutability": "view",
      "type": "function"
    },
    {
      "inputs": [],
      "name": "owner",
      "outputs": [
        {
          "internalType": "address",
          "name": "",
          "type": "address"
        }
      ],
      "stateMutability": "view",
      "type": "function"
    },
    {
      "inputs": [],
      "name": "renounceOwnership",
      "outputs": [],
      "stateMutability": "nonpayable",
      "type": "function"
    },
    {
      "inputs": [],
      "name": "reward",
      "outputs": [
        {
          "internalType": "uint256",
          "name": "",
          "type": "uint256"
        }
      ],
      "stateMutability": "view",
      "type": "function"
    },
    {
      "inputs": [
        {
          "internalType": "address",
          "name": "_user",
          "type": "address"
        },
        {
          "internalType": "address",
          "name": "_token",
          "type": "address"
        }
      ],
      "name": "rewardRateInSeconds",
      "outputs": [
        {
          "internalType": "uint256",
          "name": "",
          "type": "uint256"
        }
      ],
      "stateMutability": "view",
      "type": "function"
    },
    {
      "inputs": [
        {
          "internalType": "address",
          "name": "_user",
          "type": "address"
        },
        {
          "internalType": "address",
          "name": "_token",
          "type": "address"
        }
      ],
      "name": "rewardedTokens",
      "outputs": [
        {
          "internalType": "uint256",
          "name": "",
          "type": "uint256"
        }
      ],
      "stateMutability": "view",
      "type": "function"
    },
    {
      "inputs": [
        {
          "internalType": "uint256",
          "name": "_percentage",
          "type": "uint256"
        }
      ],
      "name": "setAnnualRewardPercentage",
      "outputs": [],
      "stateMutability": "nonpayable",
      "type": "function"
    },
    {
      "inputs": [
        {
          "internalType": "uint256",
          "name": "_tokens",
          "type": "uint256"
        },
        {
          "internalType": "uint256",
          "name": "_duration",
          "type": "uint256"
        },
        {
          "internalType": "address",
          "name": "_token",
          "type": "address"
        }
      ],
      "name": "stakeTokens",
      "outputs": [],
      "stateMutability": "nonpayable",
      "type": "function"
    },
    {
      "inputs": [],
      "name": "totalClaimedTokens",
      "outputs": [
        {
          "internalType": "uint256",
          "name": "",
          "type": "uint256"
        }
      ],
      "stateMutability": "view",
      "type": "function"
    },
    {
      "inputs": [],
      "name": "totalInvestors",
      "outputs": [
        {
          "internalType": "uint256",
          "name": "",
          "type": "uint256"
        }
      ],
      "stateMutability": "view",
      "type": "function"
    },
    {
      "inputs": [],
      "name": "totalStakedTokens",
      "outputs": [
        {
          "internalType": "uint256",
          "name": "",
          "type": "uint256"
        }
      ],
      "stateMutability": "view",
      "type": "function"
    },
    {
      "inputs": [
        {
          "internalType": "address",
          "name": "newOwner",
          "type": "address"
        }
      ],
      "name": "transferOwnership",
      "outputs": [],
      "stateMutability": "nonpayable",
      "type": "function"
    },
    {
      "inputs": [
        {
          "internalType": "address",
          "name": "_token",
          "type": "address"
        }
      ],
      "name": "unstakeTokensRequest",
      "outputs": [],
      "stateMutability": "nonpayable",
      "type": "function"
    },
    {
      "inputs": [],
      "name": "usdcToken",
      "outputs": [
        {
          "internalType": "contract IERC20",
          "name": "",
          "type": "address"
        }
      ],
      "stateMutability": "view",
      "type": "function"
    },
    {
      "inputs": [],
      "name": "usdtToken",
      "outputs": [
        {
          "internalType": "contract IERC20",
          "name": "",
          "type": "address"
        }
      ],
      "stateMutability": "view",
      "type": "function"
    },
    {
      "inputs": [
        {
          "internalType": "address",
          "name": "",
          "type": "address"
        },
        {
          "internalType": "address",
          "name": "",
          "type": "address"
        }
      ],
      "name": "userStakesByToken",
      "outputs": [
        {
          "internalType": "uint256",
          "name": "stakedTokens",
          "type": "uint256"
        },
        {
          "internalType": "uint256",
          "name": "startTime",
          "type": "uint256"
        },
        {
          "internalType": "uint256",
          "name": "duration",
          "type": "uint256"
        },
        {
          "internalType": "address",
          "name": "stakedTokenAddress",
          "type": "address"
        }
      ],
      "stateMutability": "view",
      "type": "function"
    },
    {
      "inputs": [],
      "name": "wbnbToken",
      "outputs": [
        {
          "internalType": "contract IERC20",
          "name": "",
          "type": "address"
        }
      ],
      "stateMutability": "view",
      "type": "function"
    },
    {
      "inputs": [],
      "name": "wbtcToken",
      "outputs": [
        {
          "internalType": "contract IERC20",
          "name": "",
          "type": "address"
        }
      ],
      "stateMutability": "view",
      "type": "function"
    },
    {
      "inputs": [],
      "name": "wethToken",
      "outputs": [
        {
          "internalType": "contract IERC20",
          "name": "",
          "type": "address"
        }
      ],
      "stateMutability": "view",
      "type": "function"
    },
    {
      "inputs": [
        {
          "internalType": "uint256",
          "name": "_amount",
          "type": "uint256"
        },
        {
          "internalType": "address",
          "name": "_token",
          "type": "address"
        }
      ],
      "name": "withdrawTokens",
      "outputs": [],
      "stateMutability": "nonpayable",
      "type": "function"
    }
  ],
  "bytecode": "0x60806040523480156200001157600080fd5b506040516200176238038062001762833981016040819052620000349162000125565b6200003f33620000b8565b60018055600680546001600160a01b03199081166001600160a01b0398891617909155600780548216968816969096179095556008805486169487169490941790935560098054851692861692909217909155600a80548416918516919091178155600b805490931691909316179055600555620001a6565b600080546001600160a01b038381166001600160a01b0319831681178455604051919092169283917f8be0079c531659141344cd1fd0a4f28419497f9722a3daafe3b4186f6b6457e09190a35050565b80516001600160a01b03811681146200012057600080fd5b919050565b60008060008060008060c087890312156200013f57600080fd5b6200014a8762000108565b95506200015a6020880162000108565b94506200016a6040880162000108565b93506200017a6060880162000108565b92506200018a6080880162000108565b91506200019a60a0880162000108565b90509295509295509295565b6115ac80620001b66000396000f3fe608060405234801561001057600080fd5b50600436106101a95760003560e01c80638da5cb5b116100f9578063cb13986811610097578063dce2089e11610071578063dce2089e146103e8578063f2fde38b146103fb578063f3d5bec91461040e578063fcb56f471461042157600080fd5b8063cb139868146103b8578063d0a2f2c4146103cb578063d21f9543146103e057600080fd5b8063b0ec4a4a116100d3578063b0ec4a4a1461035f578063bd83434514610372578063bee793e914610392578063c424ea5d146103a557600080fd5b80638da5cb5b1461032857806395a25efa14610339578063a98ad46c1461034c57600080fd5b806329b8caff116101665780634b57b0be116101405780634b57b0be146102e7578063715018a6146102fa57806372b234d614610302578063880ee3ea1461031557600080fd5b806329b8caff146102c2578063398d92bb146102cb5780633ae73259146102de57600080fd5b80630d475519146101ae57806311eac855146102255780631b1cd4ff146102505780631f94e1da14610283578063228cb7331461029857806327614df8146102af575b600080fd5b6101f76101bc3660046112f9565b600c6020908152600092835260408084209091529082529020805460018201546002830154600390930154919290916001600160a01b031684565b604080519485526020850193909352918301526001600160a01b031660608201526080015b60405180910390f35b600854610238906001600160a01b031681565b6040516001600160a01b03909116815260200161021c565b61027361025e36600461132c565b600d6020526000908152604090205460ff1681565b604051901515815260200161021c565b61029661029136600461134e565b61042a565b005b6102a160055481565b60405190815260200161021c565b600a54610238906001600160a01b031681565b6102a160045481565b6102966102d9366004611367565b610437565b6102a160025481565b600954610238906001600160a01b031681565b6102966104d6565b600654610238906001600160a01b031681565b6102a16103233660046112f9565b6104ea565b6000546001600160a01b0316610238565b61023861034736600461134e565b610573565b600754610238906001600160a01b031681565b61029661036d36600461138a565b61059d565b6102a161038036600461132c565b600e6020526000908152604090205481565b6102966103a03660046113fe565b6106c4565b6102a16103b33660046112f9565b6109fd565b6102966103c636600461132c565b610a88565b6103d3610d85565b60405161021c9190611433565b6102a1610de7565b6102736103f636600461132c565b610f0d565b61029661040936600461132c565b611037565b600b54610238906001600160a01b031681565b6102a160035481565b6104326110ad565b600555565b61043f6110ad565b806001600160a01b031663a9059cbb6104606000546001600160a01b031690565b6040516001600160e01b031960e084901b1681526001600160a01b039091166004820152602481018590526044016020604051808303816000875af11580156104ad573d6000803e3d6000fd5b505050506040513d601f19601f820116820180604052508101906104d19190611480565b505050565b6104de6110ad565b6104e86000611107565b565b6001600160a01b038083166000908152600c60209081526040808320858516845282528083208151608081018352815481526001820154938101849052600282015492810192909252600301549093166060840152909190829061054e90426114b8565b905060008161055d87876109fd565b61056791906114cb565b93505050505b92915050565b600f818154811061058357600080fd5b6000918252602090912001546001600160a01b0316905081565b6105a56110ad565b6001600160a01b038616158015906105c557506001600160a01b03851615155b80156105d957506001600160a01b03841615155b80156105ed57506001600160a01b03831615155b801561060157506001600160a01b03821615155b801561061557506001600160a01b03811615155b6106555760405162461bcd60e51b815260206004820152600c60248201526b5a65726f204164647265737360a01b60448201526064015b60405180910390fd5b600680546001600160a01b03199081166001600160a01b0398891617909155600780548216968816969096179095556008805486169487169490941790935560098054851692861692909217909155600a80548416918516919091179055600b80549092169216919091179055565b6106cc611157565b600083116107115760405162461bcd60e51b81526020600482015260126024820152710416d6f756e742063616e6e6f7420626520360741b604482015260640161064c565b600061071c826111b0565b6040516370a0823160e01b815233600482015290915084906001600160a01b038316906370a0823190602401602060405180830381865afa158015610765573d6000803e3d6000fd5b505050506040513d601f19601f8201168201806040525081019061078991906114e2565b10156107d75760405162461bcd60e51b815260206004820181905260248201527f496e73756666696369656e742062616c616e636520666f72207374616b696e67604482015260640161064c565b6040516323b872dd60e01b8152336004820152306024820152604481018590526001600160a01b038216906323b872dd906064016020604051808303816000875af115801561082a573d6000803e3d6000fd5b505050506040513d601f19601f8201168201806040525081019061084e9190611480565b50336000908152600c602090815260408083206001600160a01b038616845290915290208054156108a4578481600001600082825461088d91906114fb565b909155505060028101849055426001820155610998565b604080516080810182528681524260208083019182528284018881526001600160a01b0388811660608601818152336000818152600c87528981209381529286528883209751885595516001880155925160028701559151600390950180546001600160a01b0319169590911694909417909355908252600d9052205460ff1661099857336000908152600d60205260408120805460ff1916600117905560048054916109508361150e565b9091555050600f80546001810182556000919091527f8d1108e10bcb7c27dddfc02ed9d693a074039d026cf4ea4240b40f7d581ac8020180546001600160a01b031916331790555b84600260008282546109aa91906114fb565b9091555050604080518681526001600160a01b038516602082015233917f9f9e4044c5742cca66ca090b21552bac14645e68bad7a92364a9d9ff18111a1c910160405180910390a250506104d160018055565b6001600160a01b038083166000908152600c6020908152604080832085851684528252808320815160808101835281548082526001830154948201949094526002820154928101929092526003015490931660608401526005549192916301e1338091606491610a6c916114cb565b610a769190611527565b610a809190611527565b949350505050565b610a90611157565b336000908152600c602090815260408083206001600160a01b038516845290915290208054610b015760405162461bcd60e51b815260206004820181905260248201527f4e6f207374616b657320666f756e6420666f7220746869732061646472657373604482015260640161064c565b80600201544211610b685760405162461bcd60e51b815260206004820152602b60248201527f43616e6e6f7420756e7374616b65206265666f7265207374616b696e6720647560448201526a726174696f6e20656e647360a81b606482015260840161064c565b80546000610b7633856104ea565b336000908152600e6020526040812080549293508392909190610b9a9084906114fb565b925050819055508060036000828254610bb391906114fb565b925050819055508160026000828254610bcc91906114b8565b9091555050336000818152600c602090815260408083206001600160a01b0389168085529252808320838155600181018490556002810193909355600390920180546001600160a01b0319169055905163a9059cbb60e01b8152600481019290925260248201849052859163a9059cbb906044016020604051808303816000875af1158015610c5f573d6000803e3d6000fd5b505050506040513d601f19601f82011682018060405250810190610c839190611480565b5060065460405163a9059cbb60e01b8152336004820152602481018490526001600160a01b039091169063a9059cbb906044016020604051808303816000875af1158015610cd5573d6000803e3d6000fd5b505050506040513d601f19601f82011682018060405250810190610cf99190611480565b50610d0333610f0d565b610d3257336000908152600d60205260408120805460ff191690556004805491610d2c83611549565b91905055505b604080518481526001600160a01b038716602082015233917fcbcdbdf10631a43cc99c80acace8232649421c3f4f73919f16013d47c83a687a910160405180910390a250505050610d8260018055565b50565b6060600f805480602002602001604051908101604052809291908181526020018280548015610ddd57602002820191906000526020600020905b81546001600160a01b03168152600190910190602001808311610dbf575b5050505050905090565b600080805b600f54811015610f07576000600f8281548110610e0b57610e0b611560565b6000918252602090912001546006546001600160a01b039182169250610e33918391166104ea565b610e3d90846114fb565b600754909350610e579082906001600160a01b03166104ea565b610e6190846114fb565b600854909350610e7b9082906001600160a01b03166104ea565b610e8590846114fb565b600954909350610e9f9082906001600160a01b03166104ea565b610ea990846114fb565b600a54909350610ec39082906001600160a01b03166104ea565b610ecd90846114fb565b600b54909350610ee79082906001600160a01b03166104ea565b610ef190846114fb565b9250508080610eff9061150e565b915050610dec565b50919050565b6001600160a01b038082166000908152600c60209081526040808320600654909416835292905290812054151580610f6c57506001600160a01b038083166000908152600c602090815260408083206007549094168352929052205415155b80610f9e57506001600160a01b038083166000908152600c602090815260408083206008549094168352929052205415155b80610fd057506001600160a01b038083166000908152600c602090815260408083206009549094168352929052205415155b8061100257506001600160a01b038083166000908152600c60209081526040808320600a549094168352929052205415155b8061056d5750506001600160a01b039081166000908152600c60209081526040808320600b5490941683529290522054151590565b61103f6110ad565b6001600160a01b0381166110a45760405162461bcd60e51b815260206004820152602660248201527f4f776e61626c653a206e6577206f776e657220697320746865207a65726f206160448201526564647265737360d01b606482015260840161064c565b610d8281611107565b6000546001600160a01b031633146104e85760405162461bcd60e51b815260206004820181905260248201527f4f776e61626c653a2063616c6c6572206973206e6f7420746865206f776e6572604482015260640161064c565b600080546001600160a01b038381166001600160a01b0319831681178455604051919092169283917f8be0079c531659141344cd1fd0a4f28419497f9722a3daafe3b4186f6b6457e09190a35050565b6002600154036111a95760405162461bcd60e51b815260206004820152601f60248201527f5265656e7472616e637947756172643a207265656e7472616e742063616c6c00604482015260640161064c565b6002600155565b6006546000906001600160a01b03908116908316036111da5750506006546001600160a01b031690565b6007546001600160a01b03908116908316036112015750506007546001600160a01b031690565b6008546001600160a01b03908116908316036112285750506008546001600160a01b031690565b6009546001600160a01b039081169083160361124f5750506009546001600160a01b031690565b600a546001600160a01b0390811690831603611276575050600a546001600160a01b031690565b600b546001600160a01b039081169083160361129d575050600b546001600160a01b031690565b60405162461bcd60e51b8152602060048201526015602482015274496e76616c696420746f6b656e206164647265737360581b604482015260640161064c565b919050565b80356001600160a01b03811681146112dd57600080fd5b6000806040838503121561130c57600080fd5b611315836112e2565b9150611323602084016112e2565b90509250929050565b60006020828403121561133e57600080fd5b611347826112e2565b9392505050565b60006020828403121561136057600080fd5b5035919050565b6000806040838503121561137a57600080fd5b82359150611323602084016112e2565b60008060008060008060c087890312156113a357600080fd5b6113ac876112e2565b95506113ba602088016112e2565b94506113c8604088016112e2565b93506113d6606088016112e2565b92506113e4608088016112e2565b91506113f260a088016112e2565b90509295509295509295565b60008060006060848603121561141357600080fd5b833592506020840135915061142a604085016112e2565b90509250925092565b6020808252825182820181905260009190848201906040850190845b818110156114745783516001600160a01b03168352928401929184019160010161144f565b50909695505050505050565b60006020828403121561149257600080fd5b8151801515811461134757600080fd5b634e487b7160e01b600052601160045260246000fd5b8181038181111561056d5761056d6114a2565b808202811582820484141761056d5761056d6114a2565b6000602082840312156114f457600080fd5b5051919050565b8082018082111561056d5761056d6114a2565b600060018201611520576115206114a2565b5060010190565b60008261154457634e487b7160e01b600052601260045260246000fd5b500490565b600081611558576115586114a2565b506000190190565b634e487b7160e01b600052603260045260246000fdfea2646970667358221220e8c0b441679cda5ff8bfaf3e33e5afaa01aa4c242ee3a7e3f6bc6c0bfe2722ae64736f6c63430008140033",
  "linkReferences": {},
  "deployedLinkReferences": {}
}